:020000040800F2
:1000000000800120B1090008890900088B09000857
:100010008D0900088F090008910900080000000000
:10002000000000000000000000000000930900082C
:1000300095090008000000009709000899090008C8
:10004000010A0008010A0008010A0008010A000864
:10005000010A0008010A0008010A0008010A000854
:10006000010A0008010A0008010A0008010A000844
:10007000010A0008010A0008010A0008010A000834
:10008000010A0008010A0008010A00080000000037
:10009000000000000000000000000000010A00084D
:1000A000010A0008010A0008010A0008010A000804
:1000B000010A0008010A0008010A0008010A0008F4
:1000C000010A0008010A0008010A0008010A0008E4
:1000D000010A0008010A0008010A000800000000E7
:1000E000010A0008010A0008010A000800000000D7
:1000F000000000000000000000000000010A0008ED
:1001000000000000010A0008010A0008010A0008B6
:1001100000000000000000000000000000000000DF
:10012000010A0008010A0008010A0008010A000883
:10013000010A0008000000000000000000000000AC
:10014000000000000000000000000000010A00089C
:10015000010A0008010A0008010A0008010A000853
:10016000010A0008010A0008000000000000000069
:10017000000000000000000000000000000000007F
:1001800000000000010A000800000000000000005C
:04019000010A000858
:1001940010B5054C237833B9044B13B10448AFF3BD
:1001A40000800123237010BD240000200000000003
:1001B4000C3A000808B5034B1BB103490348AFF3DD
:1001C400008008BD00000000280000200C3A000850
:1001D40053B94AB9002908BF00281CBF4FF0FF31AA
:1001E4004FF0FF3000F088B9ADF1080C6DE904CE92
:1001F40000F006F8DDF804E0DDE9022304B07047FE
:100204002DE9F047089D8E4604468846002B4AD1C6
:100214008A42174662D9B2FA82F64EB1C6F1200379
:1002240001FA06F820FA03F3B74043EA0808B44099
:100234004FEA174E1FFA87FCB8FBFEF1230C0EFBA6
:10024400118843EA084301FB0CF29A4209D9FB18CE
:1002540001F1FF3080F0EA809A4240F2E7800239EF
:100264003B449A1AA3B2B2FBFEF00EFB102243EAFF
:10027400024300FB0CFC9C4509D9FB1800F1FF323A
:1002840080F0D6809C4540F2D3803B44023840EA5B
:100294000140A3EB0C0300211DB1F3400022C5E98A
:1002A4000032BDE8F0878B4205D90DB1C5E90001E4
:1002B40000210846F5E7B3FA83F1002946D17345D6
:1002C40002D3824200F20581841A6EEB03020120FC
:1002D4009046002DE5D0C5E90048E2E7002A00F089
:1002E4009080B2FA82F6002E40F0A4808A1A030CA1
:1002F4004FEA174E80B2BCB20121B2FBFEFC0EFBEA
:100304001C2243EA024304FB0CF29A4207D9FB186D
:100314000CF1FF3802D29A4200F2E080C4469B1AE4
:10032400B3FBFEF20EFB123340EA034302FB04F478
:100334009C4207D9FB1802F1FF3002D29C4200F222
:10034400CA8002461B1B42EA0C40A5E7C1F1200605
:100354008B4022FA06F71F430EFA01F420FA06F343
:100364002EFA06FE4FEA1749234300FA01F81FFA52
:1003740087FCBEFBF9F01C0C09FB10EE44EA0E44AA
:1003840000FB0CFEA64502FA01F209D93C1900F162
:10039400FF3A80F09C80A64540F2998002383C44A4
:1003A400A4EB0E041FFA83FEB4FBF9F309FB134418
:1003B4004EEA044403FB0CFCA44508D93C1903F1A0
:1003C400FF3E80F08280A4457FD9023B3C4443EA4F
:1003D4000040A4EB0C04A0FB02EC64457346E14628
:1003E40062D35FD05DB1B8EB030264EB090404FA95
:1003F40006F622FA01F31E43CC40C5E9006400214D
:100404004FE7B1FBF2FC010C41EA0E4180B240EA35
:1004140001423B4638463C46B846BE462026B1FB20
:10042400F7F1A2EB080241EA0C4166E7014618E73E
:1004340010462CE7C6F120022EFA02F3B740B14071
:1004440020FA02F24FEA174E0A43B3FBFEF8BCB29D
:100454000EFB1833110C41EA034108FB04F9B040C8
:1004640089454FEA104380B23ED9791808F1FF3C20
:1004740001D289451FD8A1EB0901B1FBFEF909FBA3
:1004840004F80EFB191192B242EA0142424529D204
:10049400BA1809F1FF31C4D24245C2D2A9F102010E
:1004A4003A44BEE7F0459DD2BEEB02036CEB070C69
:1004B4000138E14696E7A7EB09094944A8F1020C83
:1004C400B1FBFEF909FB04F8DBE773467FE750460E
:1004D40066E70846FDE63B44023A33E7ACF1020C1A
:1004E4003B441CE749469CE7A1EB0901C446B1FB28
:1004F400FEF909FB04F8C4E7704700BFF0B589B002
:100504001422002103A803F052FA00241F4B009484
:100514001A6B1F4F1F4D42F080021A631A6B02F0D0
:1005240080020092009A01941A6B42F001021A634D
:100534001A6B02F001020192019A02941A6B42F0C2
:1005440002021A631B6B03F002030293224638462D
:100554001021029B00F008FE22462846042100F0E8
:1005640003FE0126102303A93846CDE90336CDE95D
:10057400054400F0B7FC042303A92846CDE903365B
:10058400CDE9054400F0AEFC09B0F0BD00380240EE
:10059400000002400004024010B594B01022002173
:1005A4000AA803F004FA1422002103A803F0FFF9B7
:1005B4001F4B002101911A6C42F080521A641B6C8B
:1005C4001C4A03F080530193019B0291136823F4A6
:1005D400404343F400431360136803F4404302931D
:1005E4000122029B4FF48033CDE9082302244FF407
:1005F4008003CDE90E435422042308A8CDE9103228
:10060400CDE9124300F0B6FD08B172B6FEE70F2340
:10061400CDE903344FF48053CDE9063005902146EB
:1006240003A800F083FF08B172B6FEE714B010BD52
:1006340000380240007000402DE9874800F004FAB9
:10064400012204217D4800F08FFD4FF47A7000F000
:1006540027FAFFF7A1FFFFF751FF00F00BF901F0B4
:1006640045FB77497748012202F028FD00283BD159
:10067400754E7648314603F079F880BB7349744867
:10068400012202F045FD50BB346800F0F5FA034640
:1006940028BB04F50042B2F5804F49D314F5804FCE
:1006A40045D2B4F5804F72D3A4F58043B3F5804F9F
:1006B4006FD3A4F50043B3F5803F6CD3A4F5C033E6
:1006C400B3F5003F69D3A4F56033B3F5003F66D3B7
:1006D400A4F5B023B3F5003F63D300F0DFFA0022A2
:1006E4005C49104602F0EAFC5B4C636800F0B8FF1A
:1006F4005A4801F039F94FF0E02300221A615A6197
:100704009A61D3F8042D42F00072C3F8042DD3F893
:10071400242D22F4E022C3F8242DD4E90021C3F8C7
:10072400084D82F3088882F309880847FEE701230D
:100734004B4800220260013B022201A9026182604F
:10074400C36000F07FFB0028C7D1434FDFF81CA132
:10075400DFF8FCB03CBB00F0A1FA3D483568214607
:1007640002F0E7FE002865D13B4CDFF80081384FEA
:10077400002D40D1364802F0CBFE0028AFD13948D5
:1007840003F016F83749384803F063F8A7E7022363
:10079400CEE70323CCE70423CAE70523C8E70623EF
:1007A400C6E70723C4E7B4F5804F224601AB28BF50
:1007B4004FF4804251465846019202F0A7FD0028AA
:1007C4008BD1019DDFF8A49025F003053D44B84684
:1007D400A84503D1019B1F44E41ABBE759F8042B35
:1007E40000234146022000F08BFA00287FF475AF05
:1007F40008F10408ECE7B5F5804F2A4601AB28BFA1
:100804004FF4804241463846019202F07FFD88B998
:10081400019A164922F0030020442346984202D14B
:100824001444AD1AA4E751F804EB1E68764501D1CF
:100834000433F3E7064802F06BFE50E7000402407D
:10084400484500209C02002054000020373A00084C
:100854006C000020433A000800800008CC440020CB
:1008640040000020243A0008343A0008CC04002058
:1008740072B6FEE70E480F4A08B54FF48273C0E91A
:1008840000230023C0E90233C0E90433C0E908337C
:100894004FF40071302283620A23C0E90612C36256
:1008A40001F006F818B1BDE80840FFF7E1BF08BD44
:1008B400CC4400200030014010B5044688B0142216
:1008C400002103A803F073F82268144B9A4222D142
:1008D40003F58433002101915A6C114842F480528B
:1008E4005A645A6C02F480520192019A02911A6B72
:1008F40042F001021A631B6B03F001030293029B93
:10090400E02202230321CDE903230523CDE90613C5
:1009140003A900F0E7FA08B010BD00BF00300140A1
:10092400000002400268064B9A4208D1054A064874
:10093400536C23F480535364E02100F099BB704757
:1009440000300140003802400000024082B00C4BED
:10095400002100915A6C42F480425A645A6C02F4A9
:1009640080420092009A01911A6C42F080521A64FB
:100974001B6C03F080530193019B02B0704700BFCE
:1009840000380240FEE7FEE7FEE7FEE7FEE77047B9
:100994007047704700F072B8034AD2F8883043F4C5
:1009A4007003C2F88830704700ED00E0DFF834D0FF
:1009B400FFF7F2FF0C480D490D4A002302E0D4581A
:1009C400C4500433C4188C42F9D30A4A0A4C002395
:1009D40001E013600432A242FBD302F0F1FFFFF7FF
:1009E4002BFE70470080012000000020240000201E
:1009F400F43A00082400002090450020FEE700009F
:100A040038B50E4B1A784FF47A73B3FBF2F30C4AF1
:100A140005461068B0FBF3F000F09AF8044658B9A4
:100A24000F2D09D8024629464FF0FF3000F05EF83A
:100A3400044B20461D6038BD0120FCE70400002063
:100A4400000000200800002008B50B4B1A6842F48F
:100A540000721A601A6842F480621A601A6842F4DA
:100A640080721A60032000F02FF80F20FFF7C8FFF0
:100A7400FFF76CFF002008BD003C0240034A044B12
:100A840011681B780B441360704700BF2445002095
:100A940004000020014B1868704700BF2445002063
:100AA40038B50446FFF7F6FF631C1CBF054B1B78E3
:100AB400054618BFE418FFF7EDFF431BA342FAD322
:100AC40038BD00BF040000200749CA6822F4E06270
:100AD4000302120403F4E063120C134343F0BF63F4
:100AE40043F40033CB60704700ED00E0164B30B5A3
:100AF400DC68C4F30224C4F10703251D042B28BFBA
:100B04000423062D4FF0FF358CBF033C002405FA67
:100B140003F321EA0303A54022EA0502A3400028C7
:100B240043EA0203ACBF00F16040084A4FEA0313F2
:100B3400B8BF00F00F00DBB2AABF00F56140135448
:100B440080F8003330BD00BF00ED00E014ED00E09C
:100B54000138B0F1807F0BD24FF0E023054A586191
:100B6400F02182F823100020072298611A6170474F
:100B74000120704700ED00E0094910B50C6924F428
:100B840040740C610C6944F440740C610C6944F0C9
:100B940001040C610260BFF36F8F436010BD00BF9E
:100BA400003C0240074B1A6922F440721A611A6928
:100BB40042F400721A611A6942F001021A6101607A
:100BC400704700BF003C0240074B1A6922F4407290
:100BD4001A611A6942F480721A611A6942F00102B8
:100BE4001A610180704700BF003C0240204BDA6864
:100BF400D00606D51F49CA6942F01002CA61102204
:100C0400DA60DA68910606D51A49CA6942F0080220
:100C1400CA612022DA60164BDA68520606D51549F5
:100C2400CA6942F00402CA614022DA60DA68100636
:100C340006D51049CA6942F00202CA618022DA600C
:100C44000B4BDA68D10507D50A49CA6942F001029B
:100C5400CA614FF48072DA60DA68920706D50549F2
:100C6400CA6942F02002CA610222DA60704700BFFA
:100C7400003C024028450020064B1A69002ABFBFE9
:100C8400054A5A6002F188325A60BABF1869C00F27
:100C940000207047003C024023016745034A136962
:100CA40043F0004313610020704700BF003C024042
:100CB400114B70B500220446DA61FFF7EBFE0F4DCD
:100CC4000646EB68DA030CD4EB68DB0744BF012368
:100CD400EB60E86810F4F97007D0FFF787FF012094
:100CE40003E0611CEDD00CB9032070BDFFF7D2FE08
:100CF400801BA042E5D9F7E728450020003C0240CC
:100D04002DE9F0411F4E9846337E012B07460D46D0
:100D1400144635D001234CF250303376FFF7C8FF28
:100D2400B0B9CFB9184B1A6922F440721A611A6922
:100D34001A611A69E4B242F001021A612C704CF291
:100D44005030FFF7B5FF104A136923F00103136114
:100D540000233376BDE8F081012F04D1A1B22846E7
:100D6400FFF732FFEBE7022F04D121462846FFF7B5
:100D740019FFE4E7224643462846FFF7FDFEDEE777
:100D84000220E7E728450020003C0240074B1A698F
:100D940022F440721A611A6942F004021A611A6953
:100DA40042EA002242F480321A617047003C024059
:100DB4000D4B1A6922F440721A611A69022994BF10
:100DC40009024FF440710A431A611A6922F0F802C9
:100DD4001A611A6942EAC00040F0020018611A69F7
:100DE40042F480321A617047003C0240144B1A6886
:100DF40091050FD51A6822F400721A601A6842F439
:100E040000621A601A6822F400621A601A6842F4D6
:100E140000721A600A4B1A6852050FD51A6822F438
:100E240080621A601A6842F480521A601A6822F4C6
:100E340080521A601A6842F480621A60704700BFD8
:100E4400003C02402DE9F843DFF8948098F818300C
:100E5400012B05460F463FD001234CF2503088F851
:100E64001830FFF725FF0446A0B94FF0FF333B606D
:100E74002B68012B14D1287CFFF788FF4CF25030EB
:100E8400FFF716FF154A136923F0040304461361A0
:100E9400FFF7ACFF002388F818302046BDE8F8833C
:100EA400AE68DFF83890D5E902231344B342EFD992
:100EB400297C3046FFF77CFF4CF25030FFF7F8FEF8
:100EC400D9F8103023F0FA03C9F8103010B13E609D
:100ED4000446DDE70136E6E70224DEE7003C024093
:100EE400284500202DE9F74FDFF880915D4A002363
:100EF4000D6801249C4004EA0506AC4340F0A3803D
:100F04004D68032705F003044FEA430807FA08FC79
:100F1400671E012F6FEA0C0C34D8876807EA0C0EA1
:100F2400CF6807FA08F747EA0E078760476827EA99
:100F3400060EC5F300179F4047EA0E074760C768CF
:100F440007EA0C0E8F6807FA08F747EA0E07022C27
:100F5400C76019D14FEAD30A00EB8A0A03F0070BE2
:100F6400DAF820704FEA8B0B4FF00F0E0EFA0BFEDF
:100F740027EA0E0E0F6907FA0BF747EA0E07CAF8BD
:100F8400207001E0032CDAD1076804FA08F407EAB8
:100F94000C073C4315F4403F046054D000240194F2
:100FA400D9F8444044F48044C9F84440D9F8444052
:100FB40023F0030707F1804704F4804407F59C37C6
:100FC400019403F0030C019CD7F808E04FEA8C0C61
:100FD4000F2404FA0CF42EEA040E234CA04239D058
:100FE40004F58064A04237D004F58064A04235D073
:100FF40004F58064A04233D004F58064A04214BF99
:101004000724042404FA0CF444EA0E04BC60946833
:10101400F74315F4801F0CBF3C4034439460D468FC
:1010240015F4001F0CBF3C403443D460546815F4DD
:10103400003F0CBF3C40344354601468ED0354BF7C
:101044003C40344314600133102B7FF451AF03B0A0
:10105400BDE8F08F0024D5E70124D3E70224D1E7CB
:101064000324CFE7003C0140000002400038024066
:101074003B4A2DE9F04F00234FF0010A4FF00F08CF
:101084004FF0030B0AFA03FC3CEA01040CEA0106E4
:1010940058D123F0030404F1804404F59C3403F094
:1010A4000307A568BF0008FA07F909EA050E2D4DE4
:1010B400A8424CD005F58065A8424AD005F5806564
:1010C400A84248D005F58065A84246D005F580655C
:1010D400A84214BF07250425BD40754513D11568E2
:1010E40025EA06051560556825EA06055560D568A4
:1010F40025EA0605D560956825EA06059560A56884
:1011040025EA0905A56005685C000BFA04F4DE080D
:1011140025EA040500EB8606056003F00705376A37
:10112400AD0008FA05F527EA05073762C56825EA20
:101134000405C560456825EA0C054560856825EA0F
:10114400040484600133102B9CD1BDE8F08F00258A
:10115400C2E70125C0E70225BEE70325BCE700BFBF
:10116400003C0140000002400AB18161704709045B
:10117400FBE700002DE9F341044640B30368DE07B2
:1011840010D423689D075BD42368190700F19D8060
:1011940023685A0700F1BD80A369002B40F0248125
:1011A40000202CE08D4B9A6802F00C02042A07D030
:1011B4009A6802F00C02082A0BD15B68590208D520
:1011C400864B1B689A03DCD56368002BD9D10120B8
:1011D40015E06368814DB3F5803F13D12B6843F468
:1011E40080332B60FFF756FC7C4E054633689B0327
:1011F400C7D4FFF74FFC401B6428F7D9032002B083
:10120400BDE8F081B3F5A02F04D12B6843F480230B
:101214002B60E3E72A6822F480322A602A6822F4E9
:1012240080222A60002BDDD1FFF734FC06462B68B0
:101234009F03A6D5FFF72EFC801B6428F7D9DDE7B2
:10124400664B9A6812F00C0F07D09A6802F00C02F1
:10125400082A11D15B685D020ED4604A13689907AD
:1012640002D5E368012BB2D11368216923F0F80396
:1012740043EAC103136087E7E268594BB2B1012224
:101284001A60FFF707FC554D06462B689B0707D5E8
:101294002B68226923F0F80343EAC2032B6073E747
:1012A400FFF7F8FB801B0228EFD9A7E71A60FFF7C6
:1012B400F1FB4A4E054633689F077FF565AFFFF79C
:1012C400E9FB401B0228F6D998E76269444B82B1D6
:1012D4000122C3F8802EFFF7DDFB404E0546736FF5
:1012E4009B073FF555AFFFF7D5FB401B0228F6D906
:1012F40084E7C3F8802EFFF7CDFB384E0546736FA5
:101304009F077FF545AFFFF7C5FB401B0228F6D9C1
:1013140074E7324B1A6C12F0805228D101921A6C85
:1013240042F080521A641B6C03F080530193019BBA
:1013340001272C4D2B68D8051BD5A368274D012BFD
:1013440027D12B6F43F001032B67FFF7A3FB234E39
:10135400054641F28838336F9A0739D5002F3FF498
:101364001BAF1E4A136C23F08053136414E7002749
:10137400DFE72B6843F480732B60FFF78BFB064693
:101384002B68D905D9D4FFF785FB801B0228F7D930
:1013940034E7052B04D12B6F43F004032B67D0E70C
:1013A4002A6F22F001022A672A6F22F004022A67B8
:1013B400002BCAD1FFF76EFB41F2883806462B6F2B
:1013C4009B07CBD5FFF766FB801B4045F7D915E794
:1013D400FFF760FB401B4045BDD90FE700380240D2
:1013E4000000474200700040374DAA6802F00C022A
:1013F400082A3ED0022B354B4FF000021A662BD13F
:10140400FFF748FB06462B6899011FD4D4E907323D
:101414001343626A43EA8213E26A43EA0263A26AFA
:101424005208013A43EA02436B60284B264D0122DD
:101434001A66FFF72FFB04462B689A013FF5B0AEFE
:10144400FFF728FB001B0228F6D9D7E6FFF722FB9B
:10145400801B0228D7D9D1E6FFF71CFB04462B6872
:101464009B017FF59DAEFFF715FB001B0228F6D903
:10147400C4E6012B3FF4ABAE6B68E26903F4800170
:1014840091427FF4A4AE216A03F03F028A427FF4C2
:101494009EAE616A47F6C0721A40B2EB811F7FF4B8
:1014A40096AEA26A520803F44031013AB1EB024FFE
:1014B4007FF48DAEE26A03F07063B3EB026F14BF86
:1014C400012000209BE600BF003802400000474294
:1014D400134908B58B6803F00C03042B1CD0082BAC
:1014E4001CD14A684B68496813F4800314BF0D4843
:1014F4000D48C1F3881118BF002302F03F02A1FB7D
:101504000001FEF765FE064B5B68C3F3014301333C
:101514005B00B0FBF3F008BD0248FCE70248FAE7C1
:101524000038024000127A000024F4002DE9F04152
:101534000D46044610B90120BDE8F081434B1A68FA
:1015440002F007028A4228D321688F072DD4C807E6
:1015540040D43E4B1A6802F00702AA4265D82268BA
:1015640051076BD4130707D5394A2169936823F4CB
:10157400604343EAC1039360FFF7AAFF344B354A43
:101584009B68C3F30313D35CD840334B1860334BCD
:101594001868FFF735FA0020CEE7CAB21A701B6844
:1015A40003F007038B42C6D1CEE7294B11F0040F99
:1015B4001EBF9A6842F4E0529A600E0742BF9A68CE
:1015C40042F460429A609A68A06822F0F0020243F2
:1015D4009A60BCE762681E4B012A1CD11B6813F495
:1015E400003FA8D01A4EB36823F003031343B3603B
:1015F400FFF750FA41F288380746B368626803F08F
:101604000C03B3EB820FA4D0FFF744FAC01B404590
:10161400F3D9032090E7911E01291B6802D813F027
:10162400007FDEE713F0020FDBE7EAB21A701B68F3
:1016340003F00703AB427FF47EAF90E70449E06810
:101644008B6823F4E05303438B608BE7003C024038
:1016540000380240533A000800000020080000202F
:1016640070B5414CFFF716FA236843F001030546B1
:1016740023602368980758D5236843F080032360C8
:10168400FFF708FA0023A360374C054641F2883679
:10169400A36813F00C0F4FD1FFF7FCF9236823F470
:1016A40050232360304C0546236899034AD4FFF73E
:1016B400F1F9236823F0807323602B4C05462368DB
:1016C4009A0145D4FFF7E6F9236823F08063236089
:1016D400254C054623681B0140D4244B6360244BEE
:1016E400C4F88430E368234A23F4F853E360E368DE
:1016F40023F40053E360E36843F41F03E360E36807
:1017040043F40013E360636F23F001036367636FC3
:1017140043F080736367184B1A60184B1868FFF71F
:101724006FF9003818BF012005E0FFF7B3F9401B3B
:1017340002289ED9032070BDFFF7ACF9401BB042CC
:10174400A6D9F7E7FFF7A6F9401B6428ACD9F1E75F
:10175400FFF7A0F9401B0228B1D9EBE7FFF79AF98C
:10176400401B0228B6D9E5E70038024010300004D7
:10177400003000200024F4000000002008000020B5
:101784002DE9F3471F46894690460446FFF782F940
:101794000A9D3D442D1AFFF77DF9264B1E68C6F3BA
:1017A400CB366E43824601962268936839EA030376
:1017B4000CBF01230023434501D100202EE07B1CF4
:1017C400F3D0FFF767F9A0EB0A00A84229D32368F6
:1017D4005A6822F0E0025A606268B2F5827F0AD148
:1017E400A268B2F5004F02D0B2F5806F03D11A6837
:1017F40022F040021A60A26AB2F5005F07D11A68AB
:1018040022F400521A601A6842F400521A6001234A
:1018140084F85130002384F85030032002B0BDE82E
:10182400F087019B1BB1019B013B0193BCE71D4663
:10183400BAE700BF00000020F0B585B00B46009267
:101844000E461746022101220446FFF799FF05467A
:1018540028B1636D43F020036365032515E0124B43
:101864001868124BB0FBF3F04FF47A735843636873
:101874000390B3F5827F0BD1009733462A4680212B
:101884002046FFF77DFF0028E3D1284605B0F0BDD0
:10189400039B002BF9D0039B013B039323689B68B4
:1018A4001B06F5D4F1E700BF0000002000366E01EE
:1018B40010B50446002855D0436A002B4ED1426827
:1018C400B2F5827F00D0C3610023A36294F8513043
:1018D40003F0FF0223B984F850202046FEF7ECFF02
:1018E4002168A068A269022384F851300B6823F0B0
:1018F40040030B60636800F4044003F48273034301
:10190400E06800F400600343206900F00200034330
:10191400606900F00100034302F400700343E069CE
:1019240000F038000343206A00F080000343A06AFB
:1019340000F4005003430B60636A120C03F01003BD
:1019440002F004021A434A60CB6923F40063CB61BA
:1019540000200123606584F8513010BD0023C0E9E4
:101964000433B1E70120F8E710B5044680B10268FA
:10197400022380F85130136823F040031360FEF70C
:10198400D1FF0020606584F8500084F8510010BD38
:101994000120FCE72DE9F74304461F460D46904617
:1019A400FFF778F894F85130012B8146D8B240F013
:1019B4009F80002D74D0B8F1000F71D094F850308E
:1019C400012B00F09580032384F8513000236365D4
:1019D400C4E91033A4F83680A363A387E387A3681C
:1019E400266884F85000B3F5004F2563A4F83480CA
:1019F40007D1336823F040033360336843F48043F2
:101A040033603368E2685B065EBF336843F04003CB
:101A14003360B2F5006F636845D113B1B8F1010FBB
:101A240007D135F8023BF3602563E38E013B9BB29B
:101A3400E386E38E9BB2D3B94A4639462046FFF784
:101A4400FBFE002851D1A36833B901932368DA68F7
:101A540001929B680193019B012384F85130606DCE
:101A64000023C01A84F8503018BF012018E02268FF
:101A74009368980705D5236B33F8021BD160236361
:101A8400D3E7FFF707F8A0EB0900B842D1D3791CDC
:101A9400CFD0012384F85130002384F85030032040
:101AA40003B0BDE8F08313B1B8F1010F08D12B786E
:101AB4003373236B01332363E38E013B9BB2E386D1
:101AC400E38E9BB2002BB7D023689A68920703D5A4
:101AD400226B12781A73ECE7FEF7DCFFA0EB090027
:101AE400B842EDD37B1CEBD0D3E720236365AAE790
:101AF4000220D5E72DE9F74304460D4691461E46DC
:101B0400DDF82880FEF7C6FF94F851306268012B97
:101B14000746D9B20AD0B2F5827F40F0E580A368C7
:101B2400002B40F0E180042940F0DE80002D4BD0F2
:101B3400B9F1000F48D0002E46D094F85030012B54
:101B440000F0D280012384F8503094F85130C4F866
:101B54003890042B1CBF052384F85130002363659F
:101B6400C4E910332368E687E6861968A687490620
:101B740058BF1968256358BF41F04001A68658BF75
:101B84001960E168B1F5006F55D10AB1012E07D192
:101B940035F8022BDA60E38E2563013B9BB2E386C2
:101BA4000125E38E9BB28BB9E38F9BB273B93A469E
:101BB40041462046FFF740FE002800F081802023A4
:101BC4006365002384F85030012031E021688B687C
:101BD4009A070DD5E38E9BB253B145B1236B33F80D
:101BE400022BCA602363E38E013B9BB2E38600258C
:101BF4008A6812F001020CD0E38F9BB24BB1A36B45
:101C0400C96823F8021BA363E38F013B9BB2E387FC
:101C14001546FEF73FFFC01B4045C2D3B8F1FF3F56
:101C2400BFD0012384F85130002384F850300320BE
:101C340003B0BDE8F0830AB1012E08D12A781A73E3
:101C4400236B01332363E38E013B9BB2E3860125BF
:101C54002DE0226893689B070ED5E38E9BB25BB19F
:101C64004DB1236B1B781373236B01332363E38E12
:101C7400013B9BB2E38600252268916811F00101C3
:101C84000DD0E38F9BB253B1A36BD2681A70A36BD0
:101C94000133A363E38F013B9BB2E3870D46FEF759
:101CA400F9FEC01B404502D3B8F1FF3FB9D1E38E22
:101CB4009BB2002BCDD1E38F9BB2002BC9D176E729
:101CC400A36833B901932368DA6801929B6801938E
:101CD400019B012384F85130606D0023C01A84F8FD
:101CE400503018BF0120A3E70220A1E708B503493B
:101CF400034801F059FE034B187008BD4845002005
:101D04000C0000204C4500200020704700F006B96C
:101D140000F0A8B900F0B0B900F0EEB900F03CBA98
:101D24007FB532238DF80F0000930DF117020123C4
:101D34000DF10F010348FFF7DDFE9DF8170007B012
:101D44005DF804FBCC44002070B50546FEF7A2FE06
:101D54000646FF20FFF7E4FFFF28044604D0FEF701
:101D640099FE831BAB42F4D3A4F1FF0358425841BC
:101D740070BD000008B5054801221021FFF7F4F9F1
:101D8400BDE80840FF20FFF7CBBF00BF00000240C2
:101D940010B5002210210948FFF7E6F9FF20FFF7EC
:101DA400BFFF4FF4FA70FFF7CFFF044618B9FFF7EF
:101DB400E1FF204610BD0124FBE700BF0000024004
:101DC400020638B504460D4607D500213720FFF733
:101DD400F7FF01282BD804F07F040C2C28D144F001
:101DE4004000FFF79DFF280EFFF79AFFC5F3074059
:101DF400FFF796FFC5F30720FFF792FFE8B2FFF75E
:101E04008FFFECB1082C0CBF87200120FFF788FF5F
:101E14000C2C02D1FF20FFF783FF0A24FF20FFF7D9
:101E24007FFF030603D5013C14F0FF04F6D138BD4F
:101E3400FFF7A0FFFFF7ACFF0028D0D1FF20F6E7A3
:101E44009520E3E738B505464FF4FA700C46FFF7E2
:101E54007BFFD0B12046FFF763FFFD2C16D04FF077
:101E6400FF334FF4007229460948FFF793FDFF2022
:101E7400FFF756FFFF20FFF753FFFF20FFF750FF48
:101E840000F01F00431F5842584138BD0120FCE7B1
:101E9400CC44002010B50446FEF7FCFD024B18604C
:101EA400024B1C6010BD00BF54450020504500206B
:101EB40008B5FEF7EFFD054B1B68C01A044B1B6801
:101EC40098422CBF0020012008BD00BF54450020CB
:101ED4005045002038B50446C8200D46FFF7DAFF08
:101EE400FF20FFF71DFFFF2803D0FE2806D00020A7
:101EF40038BDFFF7DDFF0028F2D1F8E72544FF20C5
:101F0400FFF70EFF04F8010BAC42F8D1FF20FFF7F6
:101F140007FFFF20FFF704FF0120E9E72DE9F34164
:101F2400002840F097804C4D2B789B0704D52878E7
:101F3400C0B202B0BDE8F081484F3A68136823F09C
:101F4400380343F0300313600A24FF20013CFFF7F9
:101F5400E7FE14F0FF04F8D121462046FFF730FFD6
:101F64000128064612D000243D4B1C70FFF702FFE7
:101F7400002C6DD03A68136823F0380343F0100343
:101F840013602B7803F0FE032B70D0E74FF47A70C4
:101F9400FFF780FF4FF4D5710820FFF711FF0128E8
:101FA40038D101AEB0460424FF20FFF7B9FE013C4E
:101FB40014F0FF0408F8010BF6D19DF80630012B4C
:101FC400D1D19DF80730AA2BCDD1FFF771FF30B1E5
:101FD4004FF08041A920FFF7F3FE0028F5D1FFF769
:101FE40067FF0028BFD000213A20FFF7E9FE04462E
:101FF4000028B8D1FF20FFF793FE0134E4B2042C8B
:1020040006F8010BF6D19DF8043013F0400F18BF09
:102014000C24A9E72146A920FFF7D2FE01288EBF90
:1020240001240224A926FFF743FF28B100213046EA
:10203400FFF7C6FE0028F6D1FFF73AFF002892D03A
:102044004FF400711020FFF7BBFE00288BD18BE703
:10205400012399E701206CE720000020CC440020F4
:102064005845002018B9034B1878C0B270470120B6
:10207400704700BF2000002038B50D461C461146AD
:1020840088BB83B31A4B1B78DA072ED4194B1B7801
:102094001B0758BF4902012C11D11120FFF790FEF4
:1020A40038B94FF400712846FFF714FFB0FA80F4F2
:1020B4006409FFF75FFE201E18BF012038BD1220FF
:1020C400FFF77EFE0028F4D14FF400712846FFF795
:1020D40001FF18B1013C05F50075F5D100210C2074
:1020E400FFF76EFEE5E70420E8E70320E6E700BF1C
:1020F400200000205845002070B50E4615461C46A9
:1021040000283FD1002B3DD0214B1A78D0073BD477
:102114001B7859073AD41F4B1B781A0758BF6D0216
:10212400012C11D129461820FFF74AFE40BBFE219D
:102134003046FFF787FEB0FA80F46409FFF71AFE11
:10214400201E18BF012070BD13F0060F03D02146D6
:102154009720FFF735FE29461920FFF731FE0028A6
:10216400ECD1FC213046FFF76DFE18B1013C06F5B9
:102174000076F6D1FD210020FFF764FE0028DDD1B2
:102184000124DBE70420DEE70320DCE70220DAE7B2
:1021940020000020584500207FB51546002840F057
:1021A400DA806F4B1C7814F0010440F0D6800429C7
:1021B40000F2CF80DFE801F00309CD4A9300FFF776
:1021C400E7FDB0FA80F4640905E000210920FFF777
:1021D400F7FD28B10124FFF7CDFD204604B070BD02
:1021E40010216846FFF776FE0028F3D09DF8002002
:1021F4009DF807309209012A0BD1BDF808201B0471
:1022040052BA03F47C1313FA82F301339B022B605A
:10221400E1E79DF808209DF80A109B0003EB921358
:102224009DF80620920202F4406213449DF80520B2
:1022340002F00F0202EBD1129DF80910490001F0DF
:1022440006010A440133073A9340E0E7454E3178EA
:1022540011F004011BD000218D20FFF7B1FD0028EF
:10226400B8D1FF20FFF75CFD10216846FFF732FE6E
:102274000028AFD03026FF20013EFFF751FD16F0B5
:10228400FF06F8D19DF80A2010231209DCE7092083
:10229400FFF796FD00289DD110216846FFF71AFE2E
:1022A400002897D032789DF80A309DF80B109207D9
:1022B4000AD59DF80D205B0003F07E0303EBD113D8
:1022C40092090133013ABFE7CA0002F01802C3F3CE
:1022D400840302EB5112013302FB033397E7214ECF
:1022E400337813F0060F3FF475AF6A460B210020D4
:1022F400FFF752FF00287FF46DAF9DF80A309DF878
:10230400002003F0400353EA92133FF463AFD5E98E
:10231400001433781B0758BF49024FF0200058BF00
:102324006402FFF74DFD00287FF454AF21462120BD
:10233400FFF746FD014600287FF44CAF2620FFF747
:102344003FFD00287FF446AF47F23050FFF7FCFC16
:1023540037E704243FE704243FE703243DE700BFB5
:102364002000002058450020034B1A1803EB80037B
:10237400107A5B685B6818478445002038B5084DBF
:102384002B5C044653B905EB80022B185268187A6B
:102394001268904708B901232B5538BD0020FCE78B
:1023A4008445002030B4054C251804EB8004606893
:1023B4008468287AA44630BC604700BF8445002066
:1023C40030B4054C251804EB80046068C468287A8E
:1023D400A44630BC604700BF84450020054B10B4C0
:1023E4001C1803EB8003207A5B685DF8044B1B69BF
:1023F400184700BF84450020006870470B0A01702D
:1024040043700B0C090E8370C1707047024400F8CE
:10241400011B9042FBD170471B4B0246186830B534
:1024240060B11468A04207D15C689068844203D10B
:102434009C685069844212D0002400E00124186989
:10244400B8B11568A84207D15D699068854203D187
:1024540098695269904206D03CB1002009E00022FC
:1024640041B1102005E00122FAE702290CBF002047
:10247400122030BD03EB02139889A0F580735842F3
:1024840058410001F5E700BF5C4500201F4AF0B544
:10249400136806689E4207D155688468A54203D133
:1024A40095684469A54219D01469B44218D1576992
:1024B4008568AF4214D197694569AF4210D10123B1
:1024C40002EB03108089E9B902EB03118989013118
:1024D40089B202EB0312581C9181F0BD0023EFE78F
:1024E4000BB18CB901231D0102EB0314565185680D
:1024F4004069A06000206560A0810029E4D04FF409
:102504008071E6E70028FAD00020E6E75C45002069
:102514000138012815D80C4A010102EB0010838907
:10252400B3F5807F04D1002383810023535006E058
:10253400002BFAD0013B9BB28381002BF5D0002005
:1025440070470220704700BF5C450020054B1A68A5
:10255400904204BF00221A601A69904204BF00220C
:102564001A6170475C45002043690239023B8B4283
:1025740083BF4389806A01FB030000207047C36A5C
:10258400026804335289490AB1FBF2F1186830B188
:10259400814202D3091A0833F8E75868084470479F
:1025A400036810B58BB119460A4611F8014B202C6B
:1025B40009D93A2CF8D11978302906D101339A4235
:1025C40003D101320260002010BD4FF0FF30FBE761
:1025D40038B50D46044618B9092000232B6038BDD0
:1025E4000368002BF8D01A78002AF5D08188DA889D
:1025F4009142F1D15878FFF7B7FE10F00100EBD10A
:102604002368EBE7F8B5C37804460BB90020F8BD9E
:10261400C56A00F13007012340782A463946FFF79E
:10262400CFFE90B9236AA269E070EB1A9342EDD20F
:10263400A678012EEAD9A36960781D442A460123AD
:102644003946FFF7BDFE013EF3E70120DFE701381D
:102654000A4411F8013B00F8013F9142F9D1704757
:10266400C2F307238A76CB760378032B01BF120CBF
:102674000A75120A4A75704738B5C36A8B42054613
:102684000C4610D0FFF7BEFF60B9224668780123DC
:1026940005F13001FFF786FE00281CBF4FF0FF3420
:1026A4000120EC6238BD0020FCE70000002310B5D7
:1026B400C3704FF0FF33C3620446FFF7DDFF0346E8
:1026C40018BBB4F82E124AF6552291421FD194F841
:1026D4003020E92A05D0226B0F4902F0FF128A420A
:1026E40017D104F16600FFF787FE0C4A20F07F4003
:1026F400904208D004F18200FFF77EFE084BC31A13
:1027040018BF01235B00184610BD0423FBE7032315
:10271400F9E70223F7E700BFEB00900046415400BD
:1027240046415433F0B5002385B00B600F4616467E
:10273400FFF736FF051EC0F20E818A4B53F8254081
:10274400002C00F00A813C60237806F0FE066BB191
:102754006078FFF709FEC70708D4002E00F0D68082
:10276400400740F1D3800A2005B0F0BD0023E8B251
:1027740023706070FFF702FEC10700F1F0800EB114
:102784004207F0D400212046FFF790FF022840F0D2
:10279400C7806F4604F5FB7304F236213A4613F8FA
:1027A400040C10B11846FFF727FE10338B4242F891
:1027B400040BF4D1002557F8046B002E00F0A88018
:1027C40031462046FFF772FF012800F2A280B4F8D8
:1027D4003B30B3F5007F40F0A980B4F8461021B92E
:1027E40004F15400FFF708FE014694F84020A1616B
:1027F400531E012BA27000F2998094F83D5065811C
:10280400002D00F093806B1E2B4240F08F80B4F8B3
:10281400417027813B0740F08980B4F8430018B920
:1028240004F15000FFF7E8FDE38F002B7ED001FB9D
:1028340002FE03EB171CF444604577D3A0EB0C00B5
:10284400A842B0FBF5F271D34FF6F570824271D80D
:1028540040F6F575AA4294BF01250225023233449D
:1028640006EB0C00032D6261E6612362A06263D172
:10287400B4F85A303B4359D104F15C00FFF7BCFD76
:10288400920002F2FF12B1EB522F60624ED34FF06E
:10289400FF33C4E90333032D4FF0800323712BD19D
:1028A400B4F86030012B27D1711C2046FFF7E4FEF9
:1028B40010BBB4F82E2220714AF655239A421BD13C
:1028C40004F13000FFF798FD274B984214D104F52A
:1028D4000570FFF791FD03F1FF5303F50053203317
:1028E400984209D104F50670FFF786FD206104F5CE
:1028F4000770FFF781FDE0601C4A257013880133DF
:102904009BB2E38020461380FFF720FE00202BE7D4
:1029140003200135042D7FF44EAF042806D101E0D5
:10292400042801D101201FE7012801D90D201BE74C
:1029340000264CE7032591E7002FF7D0022D03EB87
:102944000E004FEA42031BBF9B1802F001021A4615
:1029540002EB530295E70B2006E70C2004E7032063
:1029640002E700BF80450020525261417C450020AF
:1029740001292DE9F04706460C4617466FD94369ED
:102984008B426CD90378022B3ED0032B4FD0012B02
:1029940065D101EB5108016A01EB5821FFF76CFE88
:1029A400054630BB06F1300908F1010AC8F30808EE
:1029B40014F0010418BF19F80820FBB21EBF02F07E
:1029C4000F0242EA0313DBB209F80830316A01232B
:1029D400F37001EB5A213046FFF74EFE054640B92D
:1029E400CAF3080A44B1C7F3071709F80A700123A8
:1029F400F3702846BDE8F08719F80A30C7F30327B7
:102A040023F00F031F43F0E7016A01EB1421FFF7E2
:102A140033FE05460028ECD1640006F1300304F4CB
:102A2400FF741A191F55C7F307275770DFE7016AA8
:102A340001EBD411FFF720FE05460028D9D1A400EC
:102A440006F1300304F4FE7423441846FFF7D4FC63
:102A5400014667F31B011846FFF7D0FCC7E70225C0
:102A6400C7E7F8B50446FFF7CDFD0546002842D177
:102A74002378032B37D12779012F34D104F1300681
:102A840001464FF4007230465523FFF7BFFC84F82B
:102A94002E32AA2384F82F3252234122722184F841
:102AA400303084F83130612384F8323084F81732BE
:102AB40084F8332084F8141284F8151284F816224A
:102AC400216904F50670FFF799FCE16804F50770C5
:102AD400FFF794FCE26960780132E2623B463146DA
:102AE400FFF76EFC2571002260781146FFF776FC33
:102AF400003818BF0120F8BDF8B500230246451E72
:102B04001C462E2615F8010F202804F101040AD0D2
:102B1400052808BFE520092C02BFCF1801337E72B7
:102B2400CF18013378720B2CECD10B44002058726F
:102B3400D37A0B7202F11C00FFF75EFC086002F10D
:102B44001600FFF759FCC880000C8880F8BD0328E4
:102B54004B8B04BF8A8A43EA024318467047012913
:102B6400F8B506460C464ED9436999424BD20378D0
:102B7400022B29D0032B34D0012B44D101EB510576
:102B8400016A01EB5521FFF777FD10B14FF0FF30DB
:102B9400F8BD6F1C316AC5F30805354401EB5721B4
:102BA400304695F83050FFF767FD0028EED1C7F3A3
:102BB4000807374497F8303045EA0320E3074CBF51
:102BC4000009C0F30B00E3E7016A01EB1421FFF7EE
:102BD40053FD0028DAD1640004F4FF743444208ED9
:102BE400D6E7016A01EBD411FFF746FD0028CDD1E9
:102BF400A40006F1300004F4FE742044FFF7FCFB4B
:102C040020F07040C4E70120C2E7F8B58668056883
:102C1400002304464361B6B92B78022B01D96B6AB1
:102C240083B92B890BB90220F8BD686A0022C4E974
:102C340006200028F7D000EB56203035E0612562ED
:102C44000020F1E71E466F8932467F020026B74214
:102C5400114603D92846FFF787FCE8E72068FFF709
:102C64007EFF431C024606D00128DCD96B699842DA
:102C7400D9D2F61BEBE70120D6E7F8B50C46012CB8
:102C84000568064611462BD96B69A34228D92AB197
:102C94004FF0FF322846FFF76BFE38B92146306803
:102CA400FFF75DFF2746044608B90020F8BD012858
:102CB40016D0431C16D0002239462846FFF758FE8A
:102CC4000028F3D1D5E90432911E8B4205D2013399
:102CD4002B612B7943F001032B71A242DED8E4E788
:102CE4000220E3E70120E1E72DE9F0410568804691
:102CF4000F4671B9EE68EEB16B699E4228BF01269A
:102D040034466B690134A34217D8012E14D1002430
:102D140006E02846FFF723FF0128044603D80124D0
:102D24002046BDE8F081431C30D06B698342F7D85C
:102D34003E46E5E70126E3E70224D8F800002146F1
:102D4400FFF70DFF30B10128E9D001301ED0B442A5
:102D5400D7D1DCE74FF0FF3221462846FFF708FEC3
:102D640090B957B9D5E90432023A9342EC6010D9CC
:102D74002B7943F001032B71D2E7224639462846CA
:102D8400FFF7F6FD0028EDD00128C8D14FF0FF343D
:102D9400C6E7013B2B61EBE743692DE9F04703F1FB
:102DA4002008C36905468A468BB1B8F5001F0ED2C8
:102DB400C8F308070468002F4FD181690133C36148
:102DC40041B92389B3EB581F47D80023EB61042092
:102DD400BDE8F087B4F80A9009F1FF3919EA5829D7
:102DE4003BD12046FFF7BBFE0128064601D802204E
:102DF400EEE7421C01D10120EAE76369834226D849
:102E0400BAF1000FE1D0A9692846FFF76DFF064625
:102E1400002835D00128EAD0431CECD02046FFF727
:102E2400F1FB01460028E6D104F130004FF40072B2
:102E3400FFF7ECFA31462046FFF796FB4FF0010A04
:102E44006389E06299450FD3A0EB0900E062AE61AB
:102E540031462046FFF788FBE86130343C44C5F82E
:102E640014802C620020B3E784F803A02046FFF707
:102E7400C9FB0028BFD1E06A09F101090130DFE78D
:102E84000720A5E72DE9F843066881460C4611F8AA
:102E9400013B2F2BFAD05C2BF8D00023C9F8083063
:102EA40023781F2B5DD9564F09F124050B222846A0
:102EB4002021FFF7ABFAC4F1020804F1FF3C002221
:102EC400082008EB0C011CF8013F202B08D92F2BFC
:102ED40001D05C2B4FD1605C2F284AD05C2848D0AD
:102EE4000C44002A57D099F82420D9F80080E52A08
:102EF40004BF052289F82420202B8CBF0023012342
:102F04009B0089F82F304846FFF77FFE002865D1E3
:102F1400D9F81C104046FFF7AFFB002848D1D9F878
:102F240020301A78002A61D0DA7A02F03F0289F858
:102F34000620D87A10F008000CD103F10B0C2946B6
:102F440013F8012B11F801EB6345A2EB0E022DD00F
:102F5400002AF5D000214846FFF71EFF0028D7D0ED
:102F640026E0802389F82F304846BDE8F843FFF770
:102F74004CBE0131AFE72E2B3CD090420BD9190641
:102F840048BF803BDFF87CE048BFFB5C1EF8011BB8
:102F940019B18B42FAD1062026E0A3F16101192967
:102FA4009CBF203BDBB2AB5401328AE7002AD1D16B
:102FB40099F82F30A0B95A0716D499F80630DB06D1
:102FC40016D5D9F814303078C3F3080306F130016C
:102FD4001944FFF7BCFDC9F8080067E799F82F30DA
:102FE400042801D1590703D5BDE8F8830420DFE79D
:102FF4000520F9E70B28CED008220B2061E700BF9B
:10300400633A0008443A000838B5056804460420C9
:10301400E16911B9F8B9002038BD2846FFF72CFB47
:10302400B0B9236A1A78B2B1DB7AE52A03F03F0318
:10303400A37107D02E2A05D00F2B03D023F0200331
:10304400082BE8D100212046FFF7A6FE0028DFD098
:103054000023E361E0E70420FAE770B5066805465B
:10306400FFF7D3FD044678B9E9693046FFF704FB5E
:10307400044648B92B6A1B78E52B0AD04BB10121D1
:103084002846FFF789FEEDE7042C08BF07242046F5
:1030940070BDE9693046FFF7EFFA04460028F6D11F
:1030A400286A20222146FFF7B1F9286A0B2205F18C
:1030B4002401FFF7CCFA0123F370E8E730B585B0BB
:1030C400CDE9001003A803911446FFF769FA011E25
:1030D40019DB0E4D55F8210018B1FFF737FA00231C
:1030E4000370019B23B945F82130002005B030BDA1
:1030F4000022012C45F821301A70F6D101A9684646
:10310400FFF710FBF2E70B20F0E700BF804500203B
:103114002DE9F04391B0904601910446002800F057
:10312400F08002F03F06324603A901A8FFF7FAFA3D
:10313400074600286FD1039D0199049504A8FFF761
:10314400A1FE58B99DF93F30002B6BDB18F03E0F00
:1031540014BF0121002104A8FFF75EF918F01C0F29
:103164006CD0002860D0042855D1674B1A681AB176
:103174001B69002B40F0C18004A8FFF76EFF0028F4
:1031840049D146F008063007DDF8308033D5FEF724
:10319400BBFD0246014608F10E00FFF72FF9114668
:1031A40008F11600FFF72AF9202388F80B3041466E
:1031B4002878FFF7CCFC002280462846FFF750FA17
:1031C400002201230A774A778A77CA77EB70B8F12D
:1031D400000F0ED0414604A8D5F82C90FFF74DFD02
:1031E400C8B949462846FFF747FA08F1FF33EB60B0
:1031F40088B946F04006EB6ADDF830806362012E40
:10320400C4F8288094BF0021012104A8FFF73EF9E7
:10321400206100BB0220002323600746384611B01A
:10322400BDE8F083062099E79DF8163013F0110FDE
:103234000FD118F0040FA6D00820ECE70028EAD13B
:103244009DF81630DA065AD418F0020FD3D0D807F6
:10325400D1D50720DFE728784146FFF778FCA06046
:1032640008F11C00FFF7C8F80021EB88E06004F1C6
:1032740030084FF40072E1622560A3802675617501
:103284002162A1614046FFF7C1F8B206C6D5E668DF
:10329400002EC3D06B89A168A661B6EB432F4FEA19
:1032A400432910D92068FFF75AFC01280146A6EBF0
:1032B40009061ED9431C1ED04E45F3D80020E161F7
:1032C4000028A8D100E0E161C6F30803002BA5D0D3
:1032D4002846FFF749F900289CD000EB56222262C9
:1032E400687801234146FFF75DF8002896D0012055
:1032F40091E70220E3E70120E1E712208BE70420B5
:1033040089E709278AE700BF5C4500202DE9F04FD3
:103314009B4687B000238946CBF8003005A90446B4
:103324001746FFF755F9054628BB657D1DBB237D70
:1033340013F00103019300F09E80A369E668F61A76
:10334400BE4204F1300328BF3E4602939EB1A169F8
:10335400C1F30803002B7FD1DDF814A0BAF80A806A
:1033640008F1FF3818EA51281BD141B9A068012897
:1033740010D802256575284607B0BDE8F08FE36ACA
:103384001BB12046FFF7FBF8F1E7E1692068FFF77E
:10339400E6FBECE7431C03D10123019D6375EAE7D7
:1033A400E061E1695046FFF7DFF80028E1D0B6F5A7
:1033B400007F08EB000730D3BAF80A209AF801001E
:1033C40008EB562191424FEA5623494688BFA2EBA7
:1033D40008033A460393FEF7E5FF0028DCD194F98D
:1033E4001420039B002A0CDA206AC01B984208D2DE
:1033F4004FF4007204F1300109EB4020FFF727F984
:10340400039B5F02A3693B44A361DBF800303B44A8
:10341400B944CBF80030F61B98E7226ABA421AD0B6
:1034240094F914309AF80100002B04F1300809DAF9
:1034340001234146FEF7C4FF0028ADD1237D03F0EC
:103444007F0323759AF8010001233A464146FEF7AB
:10345400A9FF0028A0D12762A169029BC1F308013A
:10346400C1F50077B74228BF37463A461944484663
:10347400FFF7EDF8C6E707257DE72DE9F34101A93C
:103484000546FFF7A5F8044600283BD12B7D13F031
:10349400400437D01B06019F0BD52A6A7878012394
:1034A40005F13001FEF78CFF80BB2B7D03F07F0319
:1034B4002B75FEF729FC696A80463846FFF7DCF86D
:1034C4000446F8B9AE6AF37A43F02003F372AA68AB
:1034D40028683146FFF7C4F8E96806F11C00FEF7D6
:1034E4008DFF414606F11600FEF788FF0123B474F0
:1034F400F4743846FB70FFF7B4FA2B7D23F04003D5
:1035040004462B75204602B0BDE8F0810124F9E79A
:1035140013B50446FFF7B1FF48B901A92046FFF7E8
:1035240057F820B92069FEF7F3FF00B9206002B014
:1035340010BD2DE9F74F0D4601A90446FFF748F8E1
:103544000646E8B9667DDEB9E36A002B7BD06A1CC7
:1035540039D11D46D4F8088055F804BB0227B8F1C8
:10356400000F28D040464FF0000A014681462068EB
:10357400FFF7F5FA01280AF1010A07D80226667551
:10358400304603B0BDE8F08F8046EBE7431C01D121
:103594000126F4E709F101098145E6D00237BB456C
:1035A40021BF2B4643F808ABC5F804801D46019B98
:1035B4005B698342E8D8E36A5F451F6000F2D48008
:1035C40000232B60DCE7E768AF4228BF2F46A761E2
:1035D400002FD5D007F1FF3949462046FEF7CFFF2B
:1035E400DDF80480E06101464046FEF7BDFF002897
:1035F400C4D0C7F30807B8F80A50002FC0D0013D63
:10360400226A05EA59250544AA42B9D094F914302E
:1036140098F80100002B04F1300709DA0123394638
:10362400FEF7CEFE0028B3D1237D03F07F0323757C
:1036340098F8010001232A463946FEF7B3FE002814
:10364400A6D125629CE7E368AB4204D2227D12F046
:10365400020F08BF1D460022A369A26155BB0025C5
:10366400E268A369934282BF227DE36042F0400294
:10367400C3F3080388BF2275002B81D0226AAA42B3
:103684003FF47EAF94F91430019F002B787804F155
:1036940030080ADA01234146FEF792FE00287FF43F
:1036A40077AF237D03F07F032375787801232A46BF
:1036B4004146C2E7019FB7F80A804FEA482883B120
:1036C400013B6A1EB3FBF8F1B2FBF8F28A4208D35D
:1036D400C8F100021340E169A361ED1A0029BED0CC
:1036E40002E0A16899B1E1614545A3691CD8A369C9
:1036F4002B44A361C5F30803002BB0D03846FEF772
:1037040033FF00283FF43AAF00EB5525A8E72046E5
:10371400FFF7EAFA012801463FF430AF481C3FF4B2
:1037240037AFA160E161D9E74344A361237D9A07E0
:10373400A5EB080906D52046FFF7D6FA054628B9B1
:103744000146D4E72068FFF70AFA05466B1C3FF4EC
:103754001FAF012D7FF612AF7B69AB427FF60EAF30
:10376400E56129464D46BFE7112609E730B58FB01C
:103774000D460190002202A901A8FEF7D3FF0446DA
:1037840088B9019902A8FFF77DFB044658B99DF951
:103794003730002B0ADB35B1099B68721BB10A98DC
:1037A4002946FFF7A9F920460FB030BD0624FAE7F1
:1037B400F0B59DB00222019003A901A8FEF7B2FF63
:1037C400039C049490B9019904A8FFF75BFB68B9C2
:1037D400022104A8FEF720FE40B99DF93F30002BDA
:1037E40035DB9DF81660F20702D507201DB0F0BD49
:1037F4000C9F20783946FFF7AAF9F30605460FD443
:10380400049E0B993046FEF737FF0028EED1E523DE
:103814003B700123F37095B92046FFF722F9E5E7E1
:10382400129010A81094FFF7F0F90028DED110A828
:10383400FFF7EAFB0028D8D00428D7D1E0E70246F6
:10384400294604A8FFF719FA0028CFD1E4E7062097
:10385400CCE72DE9F041A2B0CDE900106846FEF7AF
:103864009FFE022203A901A8FEF75CFF002873D182
:10387400039C01990A940AA8FFF704FB00286BD162
:103884009DF8573013F0A00F69D102210AA8FEF762
:10389400C3FD002860D1129D152205F10B0104A877
:1038A400FEF7D5FE0AA916A83022FEF7D0FE00992D
:1038B40016A8FFF7E7FA48B9189A0C9B9A4203D165
:1038C4001B9A0F9B9A4203D0082045E0042843D159
:1038D40016A8FFF7C2FB00283ED1DDF8788013223A
:1038E4000DF1120108F10D00FEF7B1FE9DF8103044
:1038F400012643F0200388F80B30E67098F80B306B
:10390400DB061CD5189F0C9BBB4218D0414620787F
:10391400FFF71DF901462046FEF726FE014600B3D7
:103924002046FEF7A9FEB8B994F851302E2B06D1E3
:103934003A4604F150012046FEF792FEE6700A9ED4
:1039440011993046FEF798FE30B9E5232B70012318
:10395400F3702046FFF785F822B0BDE8F081062019
:10396400FAE70220F8E7000030B50E4B5C7A054612
:1039740004F0FF00A4B95C7A18555C7A03EB840464
:1039840065605C7A1C4422725A7A541CE4B25C72FC
:103994003A2330324B702F230A708B70C87030BDBD
:1039A4000120FCE7844500200022FFF7DDBF02442C
:1039B4000346934200D1704703F8011BF9E7000066
:1039C40070B50D4D0D4C641BA4100026A64209D100
:1039D4000B4D0C4C00F018F8641BA4100026A642F2
:1039E40005D170BD55F8043B98470136EEE755F80C
:1039F400043B98470136F2E7EC3A0008EC3A000839
:103A0400EC3A0008F03A0008F8B500BFF8BC08BC6E
:103A14009E467047F8B500BFF8BC08BC9E46704788
:103A2400303A2F6669726D776172652E6375720024
:103A3400303A2F6669726D776172652E62696E0025
:103A4400222A2B2C3A3B3C3D3E3F5B5D7C7F0000B1
:103A540000000000000000010203040607080943F7
:103A64005545414141414345454549494941414500
:103A740092924F4F4F5555594F554F9C4F9E9F41D2
:103A8400494F55A5A5A6A7A8A9AAABACADAEAFB0A2
:103A9400B1B2B3B4414141B8B9BABBBCBDBEBFC0F9
:103AA400C1C2C3C4C54141C8C9CACBCCCDCECFD194
:103AB400D145454549494949D9DADBDCDD49DF4F80
:103AC400E14F4F4F4FE6E8E85555555959EEEFF0A1
:103AD400F1F2F3F4F5F6F7F8F9FAFBFCFDFEFF005A
:083AE40020C7FF7F0100000074
:043AEC00B901000814
:043AF0009501000834
:103AF4000024F4000100000010000000111D000863
:103B0400151D0008191D00081D1D0008211D0008B1
:043B140001000000AC
:04000005080009B135
:00000001FF
